:0601CE0001100001110008
:10018A00C2B4C2B6C290C296C2B5C2B7C291C29731
:01019A002242
:0E019B0000007F3D7EE17D3EDDFEDEFCDFFAF2
:0101A9002233
:0901AA00EF24FF92B4B392B522D8
:0901B300EF24FF92B6B392B722CB
:0901BC00EF24FF9296B392972202
:0901C500EF24FF9290B392912205
:10014300AE07AC0312018A1201AAAF051201B3AFC5
:09015300041201BCAF0F0201C54A
:10017500D2AFD2A9538E7F5389F0758AC0758CE0B2
:05018500C28DD28C22A6
:10015C00E4F592F591F5B2F5B1F5CAF5C912017550
:09016C00D2A8D2AA75100580FB8F
:030003000200E612
:1000E600C0E0C0D075D000C003C004C005C006C0C3
:1000F6000730B20C750F007B01E4FD7F011201434E
:0F010600D007D006D005D004D003D0D0D0E0323F
:03001300020115D2
:10011500C0E0C0D075D000C003C004C005C006C093
:100125000730B30B750F01E4FB7D01FF120143D0CE
:0E01350007D006D005D004D003D0D0D0E032E1
:03000B000200A24E
:1000A200C0E0C0D0758AC0758CE0E511C3951050D0
:1000B20012D2B4C2B5D2B6C2B7D290C291D296C24F
:1000C200978010C2B4C2B5C2B6C2B7C290C291C2C2
:1000D20096C2970511E511D394094003751100D01A
:0400E200D0D0E03268
:03000000020016E5
:0C001600787FE4F6D8FD75811102005DD2
:1000220002015CE493A3F8E493A34003F68001F297
:1000320008DFF48029E493A3F85407240CC8C333DF
:10004200C4540F4420C8834004F456800146F6DFAE
:10005200E4800B01020408102040809001CEE47E6F
:10006200019360BCA3FF543F30E509541FFEE493A3
:10007200A360010ECF54C025E060A840B8E493A36A
:10008200FAE493A3F8E493A3C8C582C8CAC583CA95
:10009200F0A3C8C582C8CAC583CADFE9DEE780BE4D
:0101D400002A
:00000001FF
